:1000000059C0000029C400004EC400007AC000009E
:1000100078C0000076C0000074C00000C1C30000BA
:1000200070C000006EC000006CC000000C944F0B4C
:1000300068C0000066C0000064C0000062C000002C
:1000400064C400005EC0000094C10000C4C1000090
:1000500058C0000056C0000054C0000052C000004C
:1000600050C000004EC00000020000000800020165
:10007000000003040700000000000000000102046B
:10008000081020408001020408102001020408101A
:100090002004040404040404040202020202020311
:1000A000030303030300000000250028002B0000C9
:1000B0001902850211241FBECFEFD8E0DEBFCDBFED
:1000C00011E0A0E0B1E0E0E3F8E102C005900D929C
:1000D000A634B107D9F728E0A6E4B1E001C01D922B
:1000E000AF38B207E1F710E0CAE5D0E004C02197CD
:1000F000FE010E94100CC835D107C9F7FCD30C943F
:10010000160C7ECFFC01918D228D892F90E0805CB2
:100110009F4F821B91098F7399270895FC01918D40
:10012000828D981731F0828DE80FF11D858D90E05A
:1001300008958FEF9FEF0895FC01918D828D9817A0
:1001400061F0828DDF01A80FB11D5D968C91928DBB
:100150009F5F9F73928F90E008958FEF9FEF0895B8
:10016000FC01538D448D252F30E0842F90E0821BBD
:10017000930B541710F0CF9608950197089580E1DE
:1001800092E0892B41F080E090E0892B21F048D16A
:1001900081110C9400000895FC01848DDF01A80FEB
:1001A000B11DA35ABF4F2C91848D90E001968F739F
:1001B0009927848FA689B7892C93A089B1898C91BE
:1001C00080648C93938D848D981306C00288F38984
:1001D000E02D80818F7D80830895CF93DF93EC01A4
:1001E000888D8823C1F0EA89FB89808185FD05C05F
:1001F000A889B9898C9186FD0EC00FB607FCF5CF92
:10020000808185FFF2CFA889B9898C9185FFEDCFD8
:10021000CE01C2DFE8CFDF91CF910895EF92FF9238
:100220000F931F93CF93DF93EC0181E0888F9B8D19
:100230008C8D981305C0E889F989808185FD23C0DC
:10024000F62E0B8D10E00F5F1F4F0F731127E02E5E
:100250008C8DE8120BC00FB607FCFACFE889F9893C
:10026000808185FFF5CFCE0197DFF2CF8B8DFE0128
:10027000E80FF11DE35AFF4FF0820B8FEA89FB89EB
:100280008081806207C0EE89FF896083E889F989EF
:1002900080818064808381E090E0DF91CF911F9125
:1002A0000F91FF90EF900895CF92DF92EF92FF921F
:1002B0001F93CF93DF93EC016A017B01122FE88932
:1002C000F98982E080834115514E61057105B1F0D5
:1002D00060E079E08DE390E0A70196010E94EE0BCB
:1002E000DA01C9010197A109B109B695A7959795BA
:1002F0008795AC01411580E15807A8F0E889F98994
:10030000108260E874E88EE190E0A70196010E94F7
:10031000EE0BBA01A90141505109610971097695A5
:10032000679557954795EC85FD855083EE85FF854C
:100330004083188EEC89FD891083EA89FB898081CE
:1003400080618083EA89FB89808188608083EA8973
:10035000FB89808180688083EA89FB8980818F7D29
:100360008083DF91CF911F91FF90EF90DF90CF902E
:1003700008951F920F920FB60F9211242F938F930F
:100380009F93EF93FF93E0915601F0915701808185
:10039000E0915C01F0915D0182FD12C0908180913D
:1003A0005F018F5F8F7320916001821751F0E091A0
:1003B0005F01F0E0EA5BFE4F958F80935F0101C023
:1003C0008081FF91EF919F918F912F910F900FBEA0
:1003D0000F901F9018951F920F920FB60F92112435
:1003E0002F933F934F935F936F937F938F939F933D
:1003F000AF93BF93EF93FF9386E491E0CDDEFF913F
:10040000EF91BF91AF919F918F917F916F915F918C
:100410004F913F912F910F900FBE0F901F90189505
:1004200086E491E06FDE21E0892B09F420E0822F41
:100430000895E6E4F1E01382128288EE93E0A0E0F2
:10044000B0E084839583A683B7838BE091E09183AA
:10045000808385EC90E09587848784EC90E0978793
:10046000868780EC90E0918B808B81EC90E0938B81
:10047000828B82EC90E0958B848B86EC90E0978B5E
:10048000868B118E128E138E148E08958F929F92EA
:10049000AF92BF92CF92DF92EF92FF920F931F9392
:1004A000CF93DF937C018B016C0182E0C80ED11CDD
:1004B0004701E5E08E0E911CC0E0D0E0F6016191AD
:1004C0006F014AE050E0C80131D15C016EE2C80121
:1004D00068D08A0D9B1DC80FD91FC814D90471F7A5
:1004E0004AE050E0F7016581C80120D18C0F9D1FC3
:1004F000DF91CF911F910F91FF90EF90DF90CF9000
:10050000BF90AF909F908F900895E3EEF1E08DE162
:1005100091E0918380831282138214821582089560
:10052000CF92DF92EF92FF920F931F93CF93DF93BF
:100530006C017A018B01C0E0D0E0CE15DF0589F0B7
:10054000D8016D918D01D601ED91FC910190F08162
:10055000E02DC6010995892B11F47E0102C0219678
:10056000ECCFC701DF91CF911F910F91FF90EF90DA
:10057000DF90CF9008956115710579F0FB0101902E
:100580000020E9F73197AF01461B570BDC01ED91D5
:10059000FC910280F381E02D099480E090E00895C1
:1005A000EACFDC01ED91FC910190F081E02D0994FE
:1005B0006FE171E0E0CF8F929F92AF92BF92CF92A6
:1005C000DF92EF92FF920F931F93CF93DF93CDB7FC
:1005D000DEB7A1970FB6F894DEBF0FBECDBF7C018A
:1005E000D42EC52EDB0119A2223008F42AE08E0198
:1005F0000F5D1F4F822E912CA12CB12C6D2D7C2DC7
:10060000CD01A50194010E94EE0BD22EC32EDA017A
:10061000015011096A3071058105910510F4605D82
:1006200001C0695CF8016083232B242B252B31F753
:10063000B801C701A0DFA1960FB6F894DEBF0FBEC8
:10064000CDBFDF91CF911F910F91FF90EF90DF9081
:10065000CF90BF90AF909F908F900895CF92DF92F0
:10066000EF92FF920F931F93CF93DF93EC016A01F8
:100670007B012115310579F4E881F9810190F08140
:10068000E02D642FDF91CF911F910F91FF90EF909C
:10069000DF90CF9009942A303105D9F477FF18C044
:1006A0006DE27FDF8C0144275527BA014C195D09A3
:1006B0006E097F092AE0CE017EDF800F911FDF9156
:1006C000CF911F910F91FF90EF90DF90CF90089501
:1006D0002AE0B701A601CE01DF91CF911F910F91C2
:1006E000FF90EF90DF90CF9066CF0F931F93CF9343
:1006F000DF93EC019A01AB01770F660B770BAEDF4E
:100700008C01CE0155DF800F911FDF91CF911F919A
:100710000F9108952115310541F4DC01ED91FC9113
:100720000190F081E02D642F099445CF9A01462F66
:1007300050E060E070E0EECF813039F018F08230A8
:1007400051F0089510926E00089580916F008D7F92
:1007500080936F000895809170008D7F809370006A
:1007600081E08093B0008091B100887F84608093A5
:10077000B1001092B3000895CF93C82F809100016B
:100780008C1307C0E8E6F0E0E4918FEF809300015E
:1007900001C0EFEF8E2FD0DF60E08C2FCF9163C1CF
:1007A0001F920F920FB60F9211242F933F934F93E6
:1007B0005F936F937F938F939F93AF93BF93EF93C9
:1007C000FF938091EC019091ED01A091EE01B09129
:1007D000EF01892B8A2B8B2B51F18091E901E0915C
:1007E000EA01F091EB019081892780838091EC01EF
:1007F0009091ED01A091EE01B091EF01181619064C
:100800001A061B06BCF48091EC019091ED01A091B9
:10081000EE01B091EF010197A109B1098093EC01BC
:100820009093ED01A093EE01B093EF0103C080918E
:100830000001A2DFFF91EF91BF91AF919F918F9146
:100840007F916F915F914F913F912F910F900FBECC
:100850000F901F90189508951F920F920FB60F9248
:1008600011242F933F934F935F936F937F938F93B5
:100870009F93AF93BF93EF93FF93E0910101F091AA
:1008800002010995FF91EF91BF91AF919F918F91D7
:100890007F916F915F914F913F912F910F900FBE7C
:1008A0000F901F9018951F920F920FB60F92112460
:1008B0002F933F934F935F936F937F938F939F9368
:1008C000AF93BF93EF93FF93E0910301F091040185
:1008D0000995FF91EF91BF91AF919F918F917F917A
:1008E0006F915F914F913F912F910F900FBE0F909D
:1008F0001F901895089553D0FDDFF6D0CFEBD0E0D0
:10090000FBD02097E9F33BDCFBCF1F920F920FB691
:100910000F9211242F933F938F939F93AF93BF9385
:100920008091F1019091F201A091F301B091F40155
:100930003091F00123E0230F2D3720F40196A11D03
:10094000B11D05C026E8230F0296A11DB11D2093FD
:10095000F0018093F1019093F201A093F301B09321
:10096000F4018091F5019091F601A091F701B09109
:10097000F8010196A11DB11D8093F5019093F60138
:10098000A093F701B093F801BF91AF919F918F9120
:100990003F912F910F900FBE0F901F901895789454
:1009A00084B5826084BD84B5816084BD85B5826074
:1009B00085BD85B5816085BDEEE6F0E08081816012
:1009C0008083E1E8F0E01082808182608083808112
:1009D00081608083E0E8F0E0808181608083E1EBEA
:1009E000F0E0808184608083E0EBF0E080818160D2
:1009F0008083EAE7F0E08081846080838081826088
:100A00008083808181608083808180688083109270
:100A1000C1000895833081F028F4813099F082304C
:100A2000A1F008958730A9F08830B9F08430D1F46E
:100A3000809180008F7D03C0809180008F778093AC
:100A40008000089584B58F7702C084B58F7D84BD02
:100A500008958091B0008F7703C08091B0008F7DA2
:100A60008093B00008951F93CF93DF93282F30E039
:100A7000F901E759FF4F8491F901E358FF4FD491F1
:100A8000F901EF56FF4FC491CC23C1F0162F81110D
:100A9000C1DFEC2FF0E0EE0FFF1FEB55FF4FA591EC
:100AA000B4918FB7F894111105C09C91ED2FE0958A
:100AB000E92302C0EC91ED2BEC938FBFDF91CF9136
:100AC0001F910895EC016EE271E086E491E068DD2B
:100AD0004AE050E0BE0186E491E007DE61E070E0AC
:100AE00080E090E012D3EFCF26E040E052EC61E0EE
:100AF00070E086E491E0D8CBAF92BF92CF92DF92C4
:100B0000EF92FF920F93A12CB12CC12CD12CE12C90
:100B1000F12C01E021E030E048EC50E064E371E0CA
:100B200082E695E083D002E022E030E048EC50E03D
:100B30006AE371E082E695E079D00F91FF90EF9043
:100B4000DF90CF90BF90AF9063C1E0912202F0910F
:100B500023028081811104C08FEF9FEFDC010EC062
:100B6000E0912202F09123020780F085E02D0084BD
:100B7000F185E02D82819381A481B5818093FA0172
:100B80009093FB01A093FC01B093FD010895CF92D7
:100B9000DF92EF92FF92E091A802F091A9026283A6
:100BA000738384839583C0900402D0900502E09003
:100BB0000602F09007026C157D058E059F0578F4FE
:100BC0006091A8027091A902809120029091210267
:100BD0006E5F7F4FFF90EF90DF90CF9098C56B01D5
:100BE0007C016091A8027091A902809122029091EB
:100BF00023026E5F7F4F8BD58091FA019091FB01AC
:100C0000A091FC01B091FD01C816D906EA06FB06C9
:100C100040F4C092FA01D092FB01E092FC01F09204
:100C2000FD01FF90EF90DF90CF9008955F926F925B
:100C30007F928F929F92AF92BF92CF92DF92EF926C
:100C4000FF920F931F93CF93DF934C01162F572ED4
:100C50005A013901C114D10431F4CA010DD36C0118
:100C6000892B09F4C4C08AE290E006D3EC01009716
:100C700079F0DC8ECB8E21E0A21AB108AC0CBD1C41
:100C8000BC01635E7F4FE12FF52DCF01089606C0B2
:100C9000C60182D3ACC0E817F90749F09F01419122
:100CA000DB014D93BD01D9012C912111F4CF1CA280
:100CB000102F0A3008F019E01A8F6E01B2E0CB0E47
:100CC000D11CC601FFD4CE010E96FCD4DB87CA87A7
:100CD0008AE090E0A0E0B0E0811B9109A109B10990
:100CE0008E879F87A88BB98BDF8BCE8B1DA21EA210
:100CF0001FA218A619A6A301B401C50177D3998331
:100D00008883E114F10419F0F701D183C0830FB691
:100D1000F8940F92809108028F5F8093080280916F
:100D2000A8029091A902892B79F5D093A902C093CA
:100D3000A802809108028130B1F58AE3E82E82E0B2
:100D4000F82EC701AED4FBE0EF0EF11C28EAE21644
:100D500022E0F206B1F78FE292E0A3D484E292E0BF
:100D6000A0D485E192E09DD48AE092E09AD48FE20B
:100D700092E0909323028093220284E292E0909387
:100D80002102809320020FC08091020281110BC0CA
:100D9000E091A802F091A902828D081720F0D0936B
:100DA000A902C093A8028091FE018F5F8093FE018B
:100DB0008A8D90910302981710F480930302ABE0A0
:100DC0008A9FC0011124B601865C9D4F7FD40F908D
:100DD0000FBE80910202882341F0E091A802F091B9
:100DE000A902828D801708F4A8D381E001C08FEF9B
:100DF000DF91CF911F910F91FF90EF90DF90CF90F7
:100E0000BF90AF909F908F907F906F905F9008956C
:100E1000AF92BF92CF92DF92EF92FF920F93A12CED
:100E2000B12CC12CD12CE12CF12C00E020E030E0E1
:100E300045E550E060E471E082EC98E0F7DE813057
:100E4000F1F4F8944FEF5FEFBA014093FA01509339
:100E5000FB016093FC017093FD01809302021092EC
:100E600004021092050210920602109207020F91DE
:100E7000FF90EF90DF90CF90BF90AF9023C30F9182
:100E8000FF90EF90DF90CF90BF90AF90089580914A
:100E9000F9018F5F8093F90108958F929F92AF922D
:100EA000BF92EF92FF920F931F93CF93DF938091A6
:100EB000F9018111A9C08091040290910502A091CD
:100EC0000602B09107020196A11DB11D8093040294
:100ED00090930502A0930602B0930702809004024B
:100EE00090900502A0900602B09007028114910430
:100EF000A104B104B1F480912202909123022091C7
:100F000020023091210230932302209322029093F9
:100F10002102809320028091FF018F5F8093FF0167
:100F200014DE8091FA019091FB01A091FC01B09137
:100F3000FD01C0E088169906AA06BB0608F454C055
:100F4000DBE0E0912202F09123028081811104C054
:100F50008FEF9FEFDC0113C0E0912202F09123029A
:100F60000780F085E02D00851185F801828193814D
:100F7000A481B58188169906AA06BB0648F4809319
:100F8000FA019093FB01A093FC01B093FD012CC0EA
:100F90007801F2E0EF0EF11CC701FDD3D80158969D
:100FA0008D919C915997892B19F0C8010E96F3D316
:100FB000F801928D80910302891710F49093030237
:100FC000D99FC0011124B701865C9D4F7FD3E0916A
:100FD000A802F091A902D8015A969C91828D981787
:100FE00008F4AFCFC1E0ADCFE091A802F091A90223
:100FF000E28DBBE0EB9FF0011124E65CFD4F8081A8
:10100000823040F0C1E006C0809101028F5F809382
:101010000102C0E0809100028111C1E08C2FDF91BC
:10102000CF911F910F91FF90EF90BF90AF909F9045
:101030008F900895EF92FF920F931F93CF93DF93BA
:101040000FB6F8940F928091F90181508093F901C5
:101050008091F901882311F080E04EC08091080250
:101060008823D1F38BE0F82EEE24E39480911502CF
:10107000882339F1E0911C02F0911D02C085D185D1
:10108000CE010E9688D38E010E5F1F4FC80183D309
:101090009A8D80910302891710F490930302F99EB0
:1010A000C0011124B801865C9D4F10D3E091A802C5
:1010B000F091A9029A8D828D9817C0F2E0920002F9
:1010C000D5CF80910102811108C08091000281304A
:1010D00009F0C2CF32D281E00FC0C1E0809101029D
:1010E000882399F3DADE8111C09300028091010216
:1010F000815080930102F2CF0F900FBEDF91CF910C
:101100001F910F91FF90EF900895CF92DF92EF9291
:10111000FF92CF93DF9300D000D0CDB7DEB761153B
:1011200071058105910511F408D221C069837A8384
:101130008B839C83ACDEC0900402D0900502E090CB
:101140000602F090070269817A818B819C81C60E2C
:10115000D71EE81EF91E8091A8029091A90202965E
:101160001AD3C701B60113DD65DF8823E9F20F90BA
:101170000F900F900F90DF91CF91FF90EF90DF9045
:10118000CF90089580910902882321F180DEC091DB
:101190000A0250DFCC23B1F30FB6F8940F92E0911E
:1011A0001102F0911202C085D185CE010296F3D2D0
:1011B0008091080281508093080280910902815039
:1011C000809309020F900FBE8B8D9C8DE5D0CE01D0
:1011D000E3D0D8CF80913A028230A0F2AED1D2CF04
:1011E0008091F901882321F081E080930002089525
:1011F000109200029BE0E09103029E9FF0011124F7
:10120000E65CFD4F8081811106C080910302815010
:1012100080930302F0CF8091030290E04BE0489F5F
:101220009001499F300D1124F901E65CFD4FA18129
:10123000B28114960D90BC91A02DB283A183235C42
:101240003D4FA217B30731F414962D913C91159799
:10125000328321832BE0289FF001299FF00D112478
:10126000E65CFD4F0180F281E02D808591859093B1
:10127000A9028093A80208950F931F93CF93DF9341
:10128000EC0105DE8091AA02811121C084EB92E07D
:101290009093B0028093AF021092B2021092B1020A
:1012A0008BED95E09093AE028093AD021092AC026C
:1012B0001092AB029093B7028093B6028BEA92E051
:1012C0009093B5028093B40281E08093AA022097A4
:1012D00009F02496CE0101978A3D954008F053C04D
:1012E000E091AF02F091B002AFEAB2E08281938167
:1012F0008C179D0728F022E0EB3AF20749F443C02F
:101300002081318121153105B1F3DF01F901EECFE3
:101310000D911C9111970C5F1F4F208131812D93EE
:101320003C938C1B9D0B8930910500F1DF01AC0FC4
:10133000BD1F13969C938E931297D383C2831296EC
:101340002D913C9113976FEA72E0EB0188819981AE
:10135000EC014A815B814217530710F4BC01F5CFC1
:1013600011969C938E93EB01B983A883809105011C
:101370009091060122813381821B930B9093060189
:101380008093050102C000E010E054DEC801DF9147
:10139000CF911F910F910895CF93DF93009719F18B
:1013A000EC01249774DD8A819B81EFEAF2E0A08151
:1013B000B18112962D913C9113972817390710F49B
:1013C000FD01F5CFB983A883D183C08320910501A6
:1013D00030910601820F931F9093060180930501BF
:1013E000DF91CF9127CEDF91CF91089531E1FC01BC
:1013F0003083319722E220833197A3E3A083319792
:1014000060833197708331971082319760E86083F1
:1014100031971082319762E06083319763E0608397
:10142000319764E06083319765E06083319766E0CF
:101430006083319767E06083319768E0608331971C
:1014400069E06083319760E1608331973083319741
:1014500032E13083319733E13083319734E13083A7
:10146000319735E13083319736E13083319737E179
:101470003083319738E13083319739E130833197C8
:1014800030E23083319731E23083319720833197D6
:1014900023E220833197408331975083319726E2AE
:1014A0002083319727E22083319728E220833197E8
:1014B00029E22083319720E32083319721E32083A1
:1014C0008697089589E08093890083EC8093880053
:1014D0008BE080938100EFE6F0E080818260808382
:1014E000A091A802B091A902CD91CDBFDD91DEBF40
:1014F000FF91EF91DF91CF91BF91AF919F918F912C
:101500007F916F915F914F913F912F911F910F911B
:10151000FF90EF90DF90CF90BF90AF909F908F9013
:101520007F906F905F904F903F902F901F900F9003
:101530000FBE0F90089581E008950F920FB6F894B2
:101540000F921F9211242F923F924F925F926F92AF
:101550007F928F929F92AF92BF92CF92DF92EF9243
:10156000FF920F931F932F933F934F935F936F932C
:101570007F938F939F93AF93BF93CF93DF93EF931B
:10158000FF93A091A802B091A9020DB60D920EB6DC
:101590000D9226DEA091A802B091A902CD91CDBFF7
:1015A000DD91DEBFFF91EF91DF91CF91BF91AF91C0
:1015B0009F918F917F916F915F914F913F912F916B
:1015C0001F910F91FF90EF90DF90CF90BF90AF9061
:1015D0009F908F907F906F905F904F903F902F9053
:1015E0001F900F900FBE0F9008950F920FB6F894B2
:1015F0000F921F9211242F923F924F925F926F92FF
:101600007F928F929F92AF92BF92CF92DF92EF9292
:10161000FF920F931F932F933F934F935F936F937B
:101620007F938F939F93AF93BF93CF93DF93EF936A
:10163000FF93A091A802B091A9020DB60D920EB62B
:101640000D922BDC8111CCDDA091A802B091A902F2
:10165000CD91CDBFDD91DEBFFF91EF91DF91CF91B5
:10166000BF91AF919F918F917F916F915F914F91BA
:101670003F912F911F910F91FF90EF90DF90CF90AE
:10168000BF90AF909F908F907F906F905F904F90A2
:101690003F902F901F900F900FBE0F900895A5DFE1
:1016A0001895FC010396928381834FEF5FEFBA0197
:1016B000438354836583768390878783928781876A
:1016C00010820895FC01138612860895CF93DF934C
:1016D0009C01FB01DC011196CD91DC911297D58321
:1016E000C4838E819F81978386838E819F81DC0155
:1016F00015967C936E9314977F836E83338722872E
:10170000F90180818F5F8083DF91CF910895EF92FF
:10171000FF920F931F93CF93DF937C01FB014081D6
:101720005181628173814F3F8FEF580768077807B7
:1017300021F4E701A985BA8512C0D7011396149642
:101740008D919C911597EC01088119812A813B812B
:10175000401751076207730710F0DC01F0CF1496B1
:101760008D919C91159795838483EC01FF83EE8383
:10177000B783A6831596FC93EE931497F386E286BF
:10178000F70180818F5F8083DF91CF911F910F914F
:10179000FF90EF900895CF93DF93FC01A285B3856E
:1017A0008481958126813781EC013F832E83C68118
:1017B000D7819D838C8311968D919C9112978E1762
:1017C0009F0721F41296DC93CE931197138612860D
:1017D0008C9181508C93DF91CF910895A1E21A2EC4
:1017E000AA1BBB1BFD010DC0AA1FBB1FEE1FFF1FC5
:1017F000A217B307E407F50720F0A21BB30BE40B15
:10180000F50B661F771F881F991F1A9469F760955B
:101810007095809590959B01AC01BD01CF01089515
:10182000EE0FFF1F0590F491E02D0994F894FFCF7F
:10183000FF2B042B04DB05000000000E019002B01A
:1018400000ED0082009C008E000000000046020DAA
:101850000A006E616E00696E66006F766600546104
:10186000736B20005461736B31005461736B3200F1
:0618700049444C45000054
:00000001FF
