:100000005EC00000CBC30000F0C300007FC0000052
:100010007DC000007BC0000079C0000063C3000009
:1000200075C0000073C0000071C000000C94470848
:100030006DC000006BC0000069C0000067C0000018
:1000400006C4000063C0000097C10000C7C10000E3
:100050005DC000005BC0000059C0000057C0000038
:1000600055C0000053C0000002000000080002015B
:10007000000003040700000000000000000102046B
:10008000081020408001020408102001020408101A
:100090002004040404040404040202020202020311
:1000A000030303030300000000250028002B0000C9
:1000B000000000240027002A00001C0288021124EE
:1000C0001FBECFEFD8E0DEBFCDBF11E0A0E0B1E0B2
:1000D000ECE0F2E102C005900D92A032B107D9F731
:1000E00022E0A0E2B1E001C01D92AF36B207E1F715
:1000F00010E0CFE5D0E004C02197FE010E94AF08D8
:10010000CD35D107C9F799D30C94040979CFFC01F7
:10011000918D228D892F90E0805C9F4F821B9109E9
:100120008F7399270895FC01918D828D981731F076
:10013000828DE80FF11D858D90E008958FEF9FEF80
:100140000895FC01918D828D981761F0828DDF01F9
:10015000A80FB11D5D968C91928D9F5F9F73928FBA
:1001600090E008958FEF9FEF0895FC01538D448D2B
:10017000252F30E0842F90E0821B930B541710F052
:10018000CF9608950197089583E192E0892B41F07D
:1001900080E090E0892B21F046D181110C94000081
:1001A0000895FC01848DDF01A80FB11DA35ABF4F34
:1001B0002C91848D90E001968F739927848FA68966
:1001C000B7892C93A089B1898C9180648C93938D8D
:1001D000848D981306C00288F389E02D80818F7D7D
:1001E00080830895CF93DF93EC01888D8823C1F03D
:1001F000EA89FB89808185FD05C0A889B9898C9130
:1002000086FD0EC00FB607FCF5CF808185FFF2CFCB
:10021000A889B9898C9185FFEDCFCE01C2DFE8CFE7
:10022000DF91CF910895EF92FF920F931F93CF9399
:10023000DF93EC0181E0888F9B8D8C8D981305C036
:10024000E889F989808185FD23C0F62E0B8D10E0A9
:100250000F5F1F4F0F731127E02E8C8DE8120BC01C
:100260000FB607FCFACFE889F989808185FFF5CFC1
:10027000CE0197DFF2CF8B8DFE01E80FF11DE35A1F
:10028000FF4FF0820B8FEA89FB898081806207C073
:10029000EE89FF896083E889F989808180648083A1
:1002A00081E090E0DF91CF911F910F91FF90EF904F
:1002B0000895CF92DF92EF92FF921F93CF93DF9337
:1002C000EC016A017B01122FE889F98982E08083C1
:1002D0004115514E61057105A9F060E079E08DE3AB
:1002E00090E0A701960119D7DA01C9010197A10988
:1002F000B109B695A79597958795AC01411580E111
:100300005807A0F0E889F989108260E874E88EE166
:1003100090E0A701960101D7BA01A9014150510906
:10032000610971097695679557954795EC85FD8527
:100330005083EE85FF854083188EEC89FD891083FC
:10034000EA89FB89808180618083EA89FB898081D9
:1003500088608083EA89FB89808180688083EA895C
:10036000FB8980818F7D8083DF91CF911F91FF90EA
:10037000EF90DF90CF9008951F920F920FB60F92DB
:1003800011242F938F939F93EF93FF93E09132016A
:10039000F09133018081E0913801F091390182FDC3
:1003A00012C0908180913B018F5F8F7320913C013F
:1003B000821751F0E0913B01F0E0EE5DFE4F958F2A
:1003C00080933B0101C08081FF91EF919F918F91BC
:1003D0002F910F900FBE0F901F9018951F920F92A4
:1003E0000FB60F9211242F933F934F935F936F9308
:1003F0007F938F939F93AF93BF93EF93FF9382E28B
:1004000091E0CFDEFF91EF91BF91AF919F918F91DE
:100410007F916F915F914F913F912F910F900FBE00
:100420000F901F90189582E291E071DE21E0892BF8
:1004300009F420E0822F0895E2E2F1E013821282B3
:1004400088EE93E0A0E0B0E084839583A683B78331
:1004500089E091E09183808385EC90E095878487A3
:1004600084EC90E09787868780EC90E0918B808B7E
:1004700081EC90E0938B828B82EC90E0958B848B67
:1004800086EC90E0978B868B118E128E138E148ED5
:1004900008958F929F92AF92BF92CF92DF92EF9288
:1004A000FF920F931F93CF93DF937C018B016C011D
:1004B00082E0C80ED11C4701E5E08E0E911CC0E021
:1004C000D0E0F60161916F014AE050E0C801D0D060
:1004D0005C016EE2C80167D08A0D9B1DC80FD91F51
:1004E000C814D90471F74AE050E0F7016581C801EA
:1004F000BFD08C0F9D1FDF91CF911F910F91FF9067
:10050000EF90DF90CF90BF90AF909F908F90089525
:10051000EFEBF1E08BE191E0918380831282138213
:10052000148215820895CF92DF92EF92FF920F937B
:100530001F93CF93DF936C017A018B01C0E0D0E071
:10054000CE15DF0589F0D8016D918D01D601ED91B1
:10055000FC910190F081E02DC6010995892B11F4E1
:100560007E0102C02196ECCFC701DF91CF911F9190
:100570000F91FF90EF90DF90CF9008956115710576
:1005800079F0FB0101900020E9F73197AF01461B9C
:10059000570BDC01ED91FC910280F381E02D099471
:1005A00080E090E00895DC01ED91FC910190F081F4
:1005B000E02D09948F929F92AF92BF92CF92DF92DB
:1005C000EF92FF920F931F93CF93DF93CDB7DEB7D8
:1005D000A1970FB6F894DEBF0FBECDBF7C01D42E1D
:1005E000C52EDB0119A2223008F42AE08E010F5D2E
:1005F0001F4F822E912CA12CB12C6D2D7C2DCD0165
:10060000A50194018AD5D22EC32EDA010150110919
:100610006A3071058105910510F4605D01C0695C67
:10062000F8016083232B242B252B39F7B801C70150
:10063000A5DFA1960FB6F894DEBF0FBECDBFDF9148
:10064000CF911F910F91FF90EF90DF90CF90BF90CF
:10065000AF909F908F9008952115310541F4DC01F2
:10066000ED91FC910190F081E02D642F0994A2CFCF
:100670009A01462F50E060E070E0EECF813039F013
:1006800018F0823051F0089510926E000895809114
:100690006F008D7F80936F000895809170008D7F33
:1006A0008093700081E08093B0008091B100887FDA
:1006B00084608093B1001092B3000895CF93C82F47
:1006C000809100018C1307C0E8E6F0E0E4918FEF21
:1006D0008093000101C0EFEF8E2FD0DF60E08C2F00
:1006E000CF91FCC11F920F920FB60F9211242F933E
:1006F0003F934F935F936F937F938F939F93AF93AA
:10070000BF93EF93FF938091C8019091C901A0918D
:10071000CA01B091CB01892B8A2B8B2B51F180918F
:10072000C501E091C601F091C701908189278083BE
:100730008091C8019091C901A091CA01B091CB01EB
:10074000181619061A061B06BCF48091C801909170
:10075000C901A091CA01B091CB010197A109B109CA
:100760008093C8019093C901A093CA01B093CB01B3
:1007700003C080910001A2DFFF91EF91BF91AF9183
:100780009F918F917F916F915F914F913F912F91A9
:100790000F900FBE0F901F90189508951F920F9203
:1007A0000FB60F9211242F933F934F935F936F9344
:1007B0007F938F939F93AF93BF93EF93FF93E091BA
:1007C0000101F09102010995FF91EF91BF91AF9165
:1007D0009F918F917F916F915F914F913F912F9159
:1007E0000F900FBE0F901F9018951F920F920FB68B
:1007F0000F9211242F933F934F935F936F937F93A7
:100800008F939F93AF93BF93EF93FF93E091030177
:10081000F09104010995FF91EF91BF91AF919F91E4
:100820008F917F916F915F914F913F912F910F9099
:100830000FBE0F901F901895089553D0FDDFD2D1B1
:10084000C4ECD0E0DAD12097E9F39EDCFBCF1F9215
:100850000F920FB60F9211242F933F938F939F9374
:10086000AF93BF938091CD019091CE01A091CF0124
:10087000B091D0013091CC0123E0230F2D3720F42B
:100880000196A11DB11D05C026E8230F0296A11DEA
:10089000B11D2093CC018093CD019093CE01A09304
:1008A000CF01B093D0018091D1019091D201A0915C
:1008B000D301B091D4010196A11DB11D8093D10146
:1008C0009093D201A093D301B093D401BF91AF9183
:1008D0009F918F913F912F910F900FBE0F901F907E
:1008E0001895789484B5826084BD84B5816084BD98
:1008F00085B5826085BD85B5816085BDEEE6F0E099
:10090000808181608083E1E8F0E0108280818260F4
:100910008083808181608083E0E8F0E08081816075
:100920008083E1EBF0E0808184608083E0EBF0E0A5
:10093000808181608083EAE7F0E080818460808349
:1009400080818260808380818160808380818068F3
:1009500080831092C10008951F93CF93DF93182FC7
:10096000EB0161E07FD0209711F460E004C0CF3F3D
:10097000D10531F461E0812FDF91CF911F91AEC09D
:10098000E12FF0E0E759FF4FE491E330F9F048F44C
:10099000E130B9F0E230A1F584B5806284BDC8BD14
:1009A00034C0E730E9F0E83019F1E43049F58091DE
:1009B0008000806280938000D0938B00C0938A0077
:1009C00024C084B5806884BDC7BD1FC080918000ED
:1009D000806880938000D0938900C093880015C000
:1009E0008091B00080688093B000C093B3000DC0C8
:1009F0008091B00080628093B000C093B40005C0C5
:100A0000C038D1050CF0B6CFB0CFDF91CF911F9198
:100A10000895833081F028F4813099F08230A1F07C
:100A200008958730A9F08830B9F08430D1F48091EE
:100A300080008F7D03C0809180008F77809380003D
:100A4000089584B58F7702C084B58F7D84BD0895E5
:100A50008091B0008F7703C08091B0008F7D80932C
:100A6000B0000895CF93DF9390E0FC01E358FF4F6F
:100A70002491FC01EF56FF4F8491882361F190E0AF
:100A8000880F991FFC01E155FF4FC591D491FC01DE
:100A9000EB55FF4FA591B491611109C09FB7F89430
:100AA0008881209582238883EC912E230BC06230AD
:100AB00061F49FB7F8943881822F809583238883CF
:100AC000EC912E2B2C939FBF06C08FB7F894E88132
:100AD0002E2B28838FBFDF91CF9108951F93CF9343
:100AE000DF93282F30E0F901E759FF4F8491F90196
:100AF000E358FF4FD491F901EF56FF4FC491CC2337
:100B0000C1F0162F811185DFEC2FF0E0EE0FFF1FF3
:100B1000EB55FF4FA591B4918FB7F894111105C013
:100B20009C91ED2FE095E92302C0EC91ED2BEC9325
:100B30008FBFDF91CF911F910895CF93DF9382E212
:100B400091E0E5DA892B09F442C082E291E0F9DA1A
:100B50008093E001853681F02091D5013091D60156
:100B6000A9014F5F5F4F5093D6014093D501F90122
:100B7000E952FE4F808322C01092D6011092D50117
:100B80006DE171E087ED91E00DD3EC01EED2909331
:100B9000E6018093E501CD2B51F06DE171E080E03D
:100BA00090E000D3E2D29093E8018093E70189E0DE
:100BB000E7EDF1E0DF011D928A95E9F76091E5012B
:100BC0007091E6018091E7019091E80108C0609181
:100BD000E1017091E2018091E3019091E401DF91E4
:100BE000CF9108951092ED0149D026E040E855E2FA
:100BF00060E070E082E291E05CCB82E291E087DA33
:100C0000892B09F43AC099DF6093E9017093EA01F6
:100C10008093EB019093EC018091EB019091EC01BA
:100C20006091E9017091EA0197FD10C077FF32D021
:100C30006091E9017091EA0177FF1FC0719561959C
:100C400071098091EB019091EC013CC077FD04C0EB
:100C500091958195910952D06091E9017091EA01D5
:100C600077FF0BC07195619571098091EB019091AF
:100C7000EC0191958195910959C0089561E08AE050
:100C8000F1DE61E08BE0EEDE61E086E0EBDE61E06C
:100C900089E0E8CECF93DF93EC019C01261B370B54
:100CA000B901665F7F4F8AE057DEBE0186E054DE01
:100CB00060E070E08BE050DE60E070E089E0DF91A2
:100CC000CF914ACE0F931F93CF93DF93EC018B010B
:100CD000BC018AE041DEBE01601B710B665F7F4F85
:100CE00086E03ADE60E070E08BE036DE60E070E0E7
:100CF00089E0DF91CF911F910F912ECECF93DF939B
:100D0000EC019C01261B370BB901665F7F4F8BE01E
:100D100023DEBE0189E020DE60E070E08AE01CDEB8
:100D200060E070E086E0DF91CF9116CE0F931F93C5
:100D3000CF93DF93EC018B01BC018BE00DDEBE0194
:100D4000601B710B665F7F4F89E006DE60E070E03C
:100D50008AE002DE60E070E086E0DF91CF911F91D3
:100D60000F91FACDE091FD01F091FE01808181119A
:100D700004C08FEF9FEFDC010EC0E091FD01F09108
:100D8000FE010780F085E02D0084F185E02D828151
:100D90009381A481B5818093EF019093F001A0939A
:100DA000F101B093F20108958F929F92AF92BF929A
:100DB000EF92FF920F931F93CF93DF938091EE01F9
:100DC0008111A9C08091F7019091F801A091F901DA
:100DD000B091FA010196A11DB11D8093F701909386
:100DE000F801A093F901B093FA018090F701909077
:100DF000F801A090F901B090FA0181149104A104C6
:100E0000B104B1F48091FD019091FE012091FB01AC
:100E10003091FC013093FE012093FD019093FC0181
:100E20008093FB018091F3018F5F8093F3019ADF40
:100E30008091EF019091F001A091F101B091F20148
:100E4000C0E088169906AA06BB0608F454C0DBE089
:100E5000E091FD01F091FE018081811104C08FEFCE
:100E60009FEFDC0113C0E091FD01F091FE010780CE
:100E7000F085E02D00851185F80182819381A481A0
:100E8000B58188169906AA06BB0648F48093EF013F
:100E90009093F001A093F101B093F2012CC078017E
:100EA000F2E0EF0EF11CC70115D1D80158968D91D3
:100EB0009C915997892B19F0C8010E960BD1F80116
:100EC000928D8091F601891710F49093F601D99FC5
:100ED000C0011124B70181509E4FDBD0E0916D021B
:100EE000F0916E02D8015A969C91828D981708F461
:100EF000AFCFC1E0ADCFE0916D02F0916E02E28D17
:100F0000BBE0EB9FF0011124E150FE4F8081823065
:100F100040F0C1E006C08091F5018F5F8093F5013C
:100F2000C0E08091F4018111C1E08C2FDF91CF915D
:100F30001F910F91FF90EF90BF90AF909F908F9077
:100F400008958091EE01882321F081E08093F401DF
:100F500008951092F4019BE0E091F6019E9FF0014C
:100F60001124E150FE4F8081811106C08091F6016D
:100F700081508093F601F0CF8091F60190E04BE034
:100F8000489F9001499F300D1124F901E150FE4F17
:100F9000A181B28114960D90BC91A02DB283A18342
:100FA0002E5F3D4FA217B30731F414962D913C915B
:100FB0001597328321832BE0289FF001299FF00DA4
:100FC0001124E150FE4F0180F281E02D8085918552
:100FD00090936E0280936D0208950F920FB6F8946D
:100FE0000F921F9211242F923F924F925F926F9215
:100FF0007F928F929F92AF92BF92CF92DF92EF92A9
:10100000FF920F931F932F933F934F935F936F9391
:101010007F938F939F93AF93BF93CF93DF93EF9380
:10102000FF93A0916D02B0916E020DB60D920EB6B7
:101030000D92BADE811185DFA0916D02B0916E0232
:10104000CD91CDBFDD91DEBFFF91EF91DF91CF91CB
:10105000BF91AF919F918F917F916F915F914F91D0
:101060003F912F911F910F91FF90EF90DF90CF90C4
:10107000BF90AF909F908F907F906F905F904F90B8
:101080003F902F901F900F900FBE0F900895A5DFF7
:101090001895CF93DF939C01FB01DC011196CD9154
:1010A000DC911297D583C4838E819F819783868339
:1010B0008E819F81DC0115967C936E9314977F83BC
:1010C0006E8333872287F90180818F5F8083DF9170
:1010D000CF910895CF93DF93FC01A285B3858481DE
:1010E000958126813781EC013F832E83C681D7818C
:1010F0009D838C8311968D919C9112978E179F07DB
:1011000021F41296DC93CE931197138612868C915C
:1011100081508C93DF91CF910895A1E21A2EAA1BE2
:10112000BB1BFD010DC0AA1FBB1FEE1FFF1FA21797
:10113000B307E407F50720F0A21BB30BE40BF50B94
:10114000661F771F881F991F1A9469F7609570951D
:10115000809590959B01AC01BD01CF010895EE0FE4
:10116000FF1F0590F491E02D0994FC018827992731
:10117000E89421912032E9F3293010F02E30C8F3A1
:101180002B3239F02D3231F4689403C035D0820F00
:10119000911D219120532A30C8F31EF4909581951A
:1011A0009F4F089540E251E000C0FA01A191B08143
:1011B000009719F41097E1F0CD01DC01CD010D90FD
:1011C000002011F4C00113C0FB012191222319F06A
:1011D0002015D9F7F3CFFB012191201519F41E92A8
:1011E000119606C02223C1F70D900020A1F7D0016F
:1011F000FA01A193B08308957AE0979F902D879F7D
:0C120000802D910D11240895F894FFCF6B
:10120C00FFCD03CD030000000013019302B500F2E3
:10121C00008700A100930000000000490223000099
:00000001FF
