:100000005FC0000087C30000ACC300007EC00000DA
:100010007CC000007AC0000078C00000FFC2000071
:1000200074C0000072C0000070C000006EC000000C
:100030006CC000006AC0000068C0000066C000001C
:10004000C2C3000062C0000033C1000063C10000F1
:100050005CC000005AC0000058C0000056C000003C
:1000600054C0000052C0000002000000080002015D
:10007000000003040700000000000000000102046B
:10008000081020408001020408102001020408101A
:100090002004040404040404040202020202020311
:1000A000030303030300000000250028002B0000C9
:1000B000000000240027002A0000B80124024605A1
:1000C00011241FBECFEFD8E0DEBFCDBF11E0A0E00E
:1000D000B1E0E4EFFAE002C005900D92A232B10760
:1000E000D9F721E0A2E2B1E001C01D92AA3DB2071A
:1000F000E1F710E0C0E6D0E003C02197FE01F2D4A2
:10010000CD35D107D1F755D3F3C47ACFFC01918D0A
:10011000228D892F90E0805C9F4F821B91098F7305
:1001200099270895FC01918D828D981731F0828D69
:10013000E80FF11D858D90E008958FEF9FEF0895F2
:10014000FC01918D828D981761F0828DDF01A80FDF
:10015000B11D5D968C91928D9F5F9F73928F90E001
:1001600008958FEF9FEF0895FC01538D448D252F47
:1001700030E0842F90E0821B930B541710F0CF9641
:100180000895019708958FEA91E0892B41F080E06E
:1001900090E0892B21F0E3D081110C9400000895A8
:1001A000FC01848DDF01A80FB11DA35ABF4F2C9114
:1001B000848D90E001968F739927848FA689B789E3
:1001C0002C93A089B1898C9180648C93938D848DBC
:1001D000981306C00288F389E02D80818F7D80838B
:1001E0000895CF93DF93EC01888D8823C1F0EA89CD
:1001F000FB89808185FD05C0A889B9898C9186FD20
:100200000EC00FB607FCF5CF808185FFF2CFA8891D
:10021000B9898C9185FFEDCFCE01C2DFE8CFDF91A8
:10022000CF910895EF92FF920F931F93CF93DF9397
:10023000EC0181E0888F9B8D8C8D981305C0E88937
:10024000F989808185FD23C0F62E0B8D10E00F5FAC
:100250001F4F0F731127E02E8C8DE8120BC00FB6C5
:1002600007FCFACFE889F989808185FFF5CFCE01B7
:1002700097DFF2CF8B8DFE01E80FF11DE35AFF4FA0
:10028000F0820B8FEA89FB898081806207C0EE894A
:10029000FF896083E889F98980818064808381E0B7
:1002A00090E0DF91CF911F910F91FF90EF90089513
:1002B0001F920F920FB60F9211242F938F939F933B
:1002C000EF93FF93E0913201F09133018081E0914F
:1002D0003801F091390182FD12C0908180913B017B
:1002E0008F5F8F7320913C01821751F0E0913B01A9
:1002F000F0E0EE5DFE4F958F80933B0101C0808161
:10030000FF91EF919F918F912F910F900FBE0F90C2
:100310001F9018951F920F920FB60F9211242F93D2
:100320003F934F935F936F937F938F939F93AF937D
:10033000BF93EF93FF9382E291E032DFFF91EF9161
:10034000BF91AF919F918F917F916F915F914F91ED
:100350003F912F910F900FBE0F901F90189582E242
:1003600091E0D4DE21E0892B09F420E0822F08956A
:10037000E2E2F1E01382128288EE93E0A0E0B0E0C6
:1003800084839583A683B7838DE091E091838083F6
:1003900085EC90E09587848784EC90E0978786874A
:1003A00080EC90E0918B808B81EC90E0938B828B42
:1003B00082EC90E0958B848B86EC90E0978B868B1B
:1003C000118E128E138E148E08958F929F92AF927B
:1003D000BF92CF92DF92EF92FF920F931F93CF9332
:1003E000DF937C018B016C0182E0C80ED11C4701B8
:1003F000E5E08E0E911CC0E0D0E0F60161916F0146
:100400004AE050E0C801D0D05C016EE2C80167D07C
:100410008A0D9B1DC80FD91FC814D90471F74AE073
:1004200050E0F7016581C801BFD08C0F9D1FDF919F
:10043000CF911F910F91FF90EF90DF90CF90BF90E1
:10044000AF909F908F900895EFEBF1E08FE191E0F6
:100450009183808312821382148215820895CF9231
:10046000DF92EF92FF920F931F93CF93DF936C0174
:100470007A018B01C0E0D0E0CE15DF0589F0D8010C
:100480006D918D01D601ED91FC910190F081E02DEF
:10049000C6010995892B11F47E0102C02196ECCF8B
:1004A000C701DF91CF911F910F91FF90EF90DF90E7
:1004B000CF9008956115710579F0FB01019000203E
:1004C000E9F73197AF01461B570BDC01ED91FC9129
:1004D0000280F381E02D099480E090E00895DC0132
:1004E000ED91FC910190F081E02D09948F929F9203
:1004F000AF92BF92CF92DF92EF92FF920F931F9332
:10050000CF93DF93CDB7DEB7A1970FB6F894DEBFD8
:100510000FBECDBF7C01D42EC52EDB0119A2223027
:1005200008F42AE08E010F5D1F4F822E912CA12C22
:10053000B12C6D2D7C2DCD01A5019401B1D2D22E0F
:10054000C32EDA01015011096A3071058105910548
:1005500010F4605D01C0695CF8016083232B242BDB
:10056000252B39F7B801C701A5DFA1960FB6F8947E
:10057000DEBF0FBECDBFDF91CF911F910F91FF90D6
:10058000EF90DF90CF90BF90AF909F908F900895A5
:100590002115310541F4DC01ED91FC910190F081D0
:1005A000E02D642F0994A2CF9A01462F50E060E01D
:1005B00070E0EECF813039F018F0823051F00895BC
:1005C00010926E00089580916F008D7F80936F0070
:1005D0000895809170008D7F8093700081E08093FA
:1005E000B0008091B100887F84608093B100109248
:1005F000B3000895CF93C82F809100018C1307C0DA
:10060000E8E6F0E0E4918FEF8093000101C0EFEFA6
:100610008E2FD0DF60E08C2FCF91CBC11F920F9235
:100620000FB60F9211242F933F934F935F936F93C5
:100630007F938F939F93AF93BF93EF93FF9380919B
:10064000C8019091C901A091CA01B091CB01892B39
:100650008A2B8B2B51F18091C501E091C601F0915D
:10066000C7019081892780838091C8019091C90139
:10067000A091CA01B091CB01181619061A061B06E3
:10068000BCF48091C8019091C901A091CA01B091B8
:10069000CB010197A109B1098093C8019093C901C9
:1006A000A093CA01B093CB0103C080910001A2DFE7
:1006B000FF91EF91BF91AF919F918F917F916F913A
:1006C0005F914F913F912F910F900FBE0F901F9010
:1006D000189508958230E8F4E82FF0E0EE0FFF1F40
:1006E000EF5FFE4F71836083813041F0809169003C
:1006F0008C7F482B40936900E89A089580916900A7
:10070000440F551F440F551F837F482B40936900AA
:10071000E99A08951F920F920FB60F9211242F930A
:100720003F934F935F936F937F938F939F93AF9379
:10073000BF93EF93FF93E0910101F09102010995BE
:10074000FF91EF91BF91AF919F918F917F916F91A9
:100750005F914F913F912F910F900FBE0F901F907F
:1007600018951F920F920FB60F9211242F933F935B
:100770004F935F936F937F938F939F93AF93BF93A9
:10078000EF93FF93E0910301F09104010995FF912C
:10079000EF91BF91AF919F918F917F916F915F91F9
:1007A0004F913F912F910F900FBE0F901F90189572
:1007B00008955FD0FDDF5DD1C3ECD0E063D1209719
:1007C000E9F3E1DCFBCF1F920F920FB60F921124D9
:1007D0002F933F938F939F93AF93BF938091CD01BE
:1007E0009091CE01A091CF01B091D0013091CC0178
:1007F00023E0230F2D3720F40196A11DB11D05C064
:1008000026E8230F0296A11DB11D2093CC018093F1
:10081000CD019093CE01A093CF01B093D0018091F0
:10082000D1019091D201A091D301B091D401019650
:10083000A11DB11D8093D1019093D201A093D3014A
:10084000B093D401BF91AF919F918F913F912F9120
:100850000F900FBE0F901F9018952FB7F8946091CE
:10086000CD017091CE018091CF019091D0012FBF29
:100870000895789484B5826084BD84B5816084BD18
:1008800085B5826085BD85B5816085BDEEE6F0E009
:10089000808181608083E1E8F0E010828081826065
:1008A0008083808181608083E0E8F0E080818160E6
:1008B0008083E1EBF0E0808184608083E0EBF0E016
:1008C000808181608083EAE7F0E0808184608083BA
:1008D0008081826080838081816080838081806864
:1008E00080831092C1000895833081F028F4813014
:1008F00099F08230A1F008958730A9F08830B9F0DE
:100900008430D1F4809180008F7D03C0809180007D
:100910008F7780938000089584B58F7702C084B567
:100920008F7D84BD08958091B0008F7703C0809142
:10093000B0008F7D8093B0000895CF93DF9390E057
:10094000FC01E358FF4F2491FC01EF56FF4F8491C7
:10095000882361F190E0880F991FFC01E155FF4F5A
:10096000C591D491FC01EB55FF4FA591B491611154
:1009700009C09FB7F8948881209582238883EC91E1
:100980002E230BC0623061F49FB7F8943881822F18
:10099000809583238883EC912E2B2C939FBF06C0D8
:1009A0008FB7F894E8812E2B28838FBFDF91CF91EA
:1009B00008951F93CF93DF93282F30E0F901E75973
:1009C000FF4F8491F901E358FF4FD491F901EF569D
:1009D000FF4FC491CC23C1F0162F811185DFEC2F7E
:1009E000F0E0EE0FFF1FEB55FF4FA591B4918FB7CD
:1009F000F894111105C09C91ED2FE095E92302C0F8
:100A0000EC91ED2BEC938FBFDF91CF911F91089567
:100A10000F931F9322DF0091D5011091D6012091F1
:100A2000D7013091D801DC01CB01801B910BA20BC7
:100A3000B30B00910501109106012091070130913F
:100A40000801081719072A073B0780F481E09091F5
:100A5000D901911180E08093D901FFDE6093D50127
:100A60007093D6018093D7019093D8011F910F9175
:100A7000089543E050E068E075E080E02BDE61E03F
:100A800086E05BCF6091D90186E093CFE6DE60938C
:100A9000D5017093D6018093D7019093D801089522
:100AA000A1E21A2EAA1BBB1BFD010DC0AA1FBB1F72
:100AB000EE1FFF1FA217B307E407F50720F0A21BE4
:100AC000B30BE40BF50B661F771F881F991F1A9451
:100AD00069F760957095809590959B01AC01BD017B
:100AE000CF010895EE0FFF1F0590F491E02D0994BA
:040AF000F894FFCFA8
:100AF400FF69036903C80000000000000012012F11
:100B040002B400F1008600A000920000000000E59D
:020B14000100DE
:00000001FF
